:020000040000FA
:100000008A01830119280000FF00030EFE00040886
:10001000FC000A08FD008A01830100007D088A00B7
:100020007C0884007E0E8300FF0E7F0E0900FF3FD8
:10003000FF3F8312031304308C00831203138313D6
:10004000203084008001840A841F2228A03084008C
:100050008001840F28288317103084008001840ACF
:10006000841F2E28903084008001840F342883134D
:10007000831603171130A0001130A1001130A20027
:100080002430A3001130A4001130A5001130A600C7
:100090003330A7004330A8005330A9006330AA00D2
:1000A0001130AB001130AC001130AD001130AE009A
:1000B0001130AF00831603138E309F008312031399
:1000C000C1309F0083120313113085008316031380
:1000D00011308500831203137F30860083160313CB
:1000E0007F308600831203131930870083160313B1
:1000F0008030870083120313FF30880083160313B8
:10010000FF308800831603132030980007309900D1
:1001100083120313903098001A088C1A8C288312CB
:100120000313A030BA00831203136F23C127C6271D
:100130000C30F100802701307B278A150A16002039
:1001400000008A110A12851405157D230030CB2783
:1001500085100515051AB0288A150A167F29000092
:100160008316031300308C008312031300308C00BD
:1001700000308B00FF3FFF3FD8288312031318196C
:10018000C6289818C6288C1AD428BD2818126327A8
:1001900020309800073099006027903098001A08A6
:1001A0008C1ACF28FA1408001A08BB00FA100800AD
:1001B000831203131819E1289818E1288C1AF928DA
:1001C0001E291812632720309800073099006027F5
:1001D000903098001A088C1AEA2883160313981C8A
:1001E000EF28831203133F3099007A10A030BA0031
:1001F0001E291A08BB003A0884003B088000BA0A8E
:10020000B0303A060319E1281B303B06031D0F29C5
:100210007A14A030BA0084003B088000BA0A7A1C25
:1002200019290D303B06031D19297A10A030BA0098
:1002300038297A181E29791D4229042B0000FF3F16
:10024000FF3F83120313B80D3810051A3814FE301F
:100250003806031D3529F91D352983160313981C0B
:100260002F298312031342309900BC28FF3FFF3F20
:1002700000008A110A1600208A01A030BA00BC28AA
:10028000FF3FFF3F3B08A3000030A2000310A30D77
:10029000A20DA30DA20DA30DA20DA030A000F91870
:1002A000492A790EF500F50C750C0339F50001307B
:1002B0008A00750882075F297A299929EE29053075
:1002C000F918073078077A3C03186D290130F707D1
:1002D00077087B27F801780880270530F918073060
:1002E000F000F32724087127EE2724087127F00B6C
:1002F0007429F92A0A30F9180E3078077A3C031865
:1003000088290130F70777087B27F80178088027CC
:100310000530F9180730F000F32724087127240866
:100320007127EE272408712724087127F00B9129E3
:10033000F92A0530F918073078077A3C0318A729FD
:100340000230F70777087B27F80178088027A0306C
:100350008400F3272F237108800008308407720877
:100360008000073084020530F9180730F000EE27CE
:100370002F2371088000083084077208800007303E
:100380008402F00BB7297708E5007808E600F70A41
:1003900077087B27A030083E84000630F918083023
:1003A000F00000087127840AF00BD1298A150A127F
:1003B000422300008A110A126508F7007B276608AD
:1003C000F8008027A03084000630F9180830F000CB
:1003D00000087127840AF00BE829F92A0A30F91875
:1003E0000E3078077A3C0318FC290230F7077708AB
:1003F0007B27F80178088027A0308400F3272F237B
:100400007108800008308407720880000730840279
:100410000530F9180730F000EE272F23710880000F
:10042000083084077208800007308402F00B0C2A21
:100430007708E5007808E600F70A77087B27A03000
:10044000083E84000630F9180830F00000087127D3
:1004500000087127840AF00B262A8A150A12422303
:1004600000008A110A126508F7007B276608F80069
:100470008027A03084000630F9180830F00000080A
:10048000712700087127840AF00B3F2AF92AFF3FE1
:10049000FF3F0830A207790EF500F50C750C033903
:1004A000F50002308A0075088207592A702A872AC7
:1004B000C02A073078077A3C0318652A0130F7070D
:1004C00077087B27F801780880270730F000F327AA
:1004D00024087127EE2724087127F00B6A2AF92ACD
:1004E0000F3078077A3C03187C2A0130F707770829
:1004F0007B27F801780880270F30F000F3272408C5
:100500007127EE2724087127F00B812AF92A07307A
:1005100078077A3C0318932A0230F70777087B277D
:10052000F801780880277708E5007808E600F327C7
:10053000240871270730F000EE2724087127F00BFC
:100540009C2A8A150A12422300008A110A126508A1
:10055000013EF7007B276608F80080278030A3075C
:100560000318A20AF327240871270730F000EE27AA
:1005700024087127F00BB72A6508F7007B27F92AB2
:100580000F3078077A3C0318CC2A0230F707770837
:100590007B27F801780880277708E5007808E600CF
:1005A000F327240871270F30F000EE272408712765
:1005B000F00BD52A8A150A12422300008A110A126A
:1005C0006508013EF7007B276608F8008027803029
:1005D000A3070318A20AF327240871270F30F0009D
:1005E000EE2724087127F00BF02A6508F7007B2717
:1005F000F92A8A150A12422300008A110A12A03031
:10060000BA00BC28FF3FFF3F790E0339F5000330E5
:100610008A00750882070F2B122B0F2B1E2B3B080D
:1006200071272A2BB7276C276C273B0832047127C8
:10063000BC2777087B27780880272A2BB7276C27C9
:100640006C273B0932057127BC2777087B27780880
:1006500080272A2BA030BA00BC28FF3FFF3FF101C2
:10066000F201241C352B7114F114A41C392B7115C3
:10067000F115241D3D2B7116F116A41D412B711788
:10068000F117241E452B7214F214A41E492B721567
:10069000F215241F4D2B7216F216A41F512B721740
:1006A000F21708000130642B0430642B1330642BE4
:1006B0002630642B4D30642B7330642B9A30642BBE
:1006C000C030642BE630642BE000E1010000000044
:1006D000E10B662BE00B672B08000130892B023001
:1006E000892B0330892B0430892B0530892B063068
:1006F000892B0730892B0830892B0930892B0A3048
:10070000892B0B30892B0C30892B0D30892B19301C
:10071000892BE000E101E201000000000000E20B93
:100720008C2BE10B8D2BE00B8E2B0800FF3FFF3F46
:10073000FF3FFF3FFF3FFF3FFF3FFF3FFF3FFF3FC9
:10074000FF3FFF3FFF3FFF3FFF3FFF3FFF3FFF3FB9
:10075000FF3FFF3FFF3FFF3FFF3FFF3FFF3FFF3FA9
:10076000FF3FFF3FFF3FFF3FFF3FFF3FFF3FFF3F99
:100EC0008312031308008316031308008312031709
:100ED00008008316031708008A110A16A1268A0142
:100EE00008008A110A16DD268A0108008A110A16EE
:100EF0004E268A0108008A110A1658268A0108001F
:100F00008A110A1662268A0108008A110A1610261A
:100F10008A0108008A110A1615268A0108008A111A
:100F20000A161A268A0108008A110A161F268A0143
:100F300008008A110A1624268A0108008A110A1656
:100F400029268A0108008A110A162E268A0108001D
:100F50008A110A1633268A0108008A110A163826D1
:100F60008A0108008A110A163D268A0108008A11A2
:100F70000A1642268A0108008A110A1648268A01A2
:100F800008008A110A162F278A0108008A110A16FA
:100F9000AA258A0108008A110A16C8258A010800B4
:100FA0008A110A16EB258A0108008A150A12012007
:100FB0008A0108008A150A12B0208A0108008A15E1
:100FC0000A12C5208A0108008A150A1288218A019E
:100FD00008008A150A1247228A0108008A150A1297
:100FE00058228A0108008A150A1269228A0108001B
:100FF0008A150A1292228A010800FF3FFF3FFF3F35
:10100000080000001622A91020102008A821291885
:10101000AE28A9102108A8212918AE28A910291442
:101020008316031320088312031320390038A821E4
:10103000A9102914831603132108831203131F39DF
:101040000038A821A910291483160313220883123B
:10105000031300390038A821A9102914831603139B
:101060002308831203137F390038A821A9102914FB
:10107000831603132408831203133F390038A82171
:10108000A9102914831603132508831203133F396B
:101090000038A821A91029148316031326088312E7
:1010A000031307390038A821A91029148316031344
:1010B0002708831203131F390038A821A910291407
:1010C00083160313280883120313FF390038A8215D
:1010D000A910291483160313290883120313FF3957
:1010E0000038A821A9102914831603132A08831293
:1010F0000313FF390038A821A910291483160313FC
:101100002B0883120313FF390038A821A9102914D2
:10111000831603132C0883120313FF390038A82108
:10112000A9102914831603132D088312031383397E
:101130000038A821A9102914831603132E0883123E
:10114000031383390038A821A91029148316031327
:101150002F0883120313A821372208003722080022
:1011600000001622A91020102008A8212918C32841
:10117000A9102108A8212918C328A9102914240876
:10118000A821372208003722080000001622A910E3
:1011900020102008A82129188629A9102108A82193
:1011A000291886291622A91020142008A8212918F8
:1011B0008629A9142910FF30A821260883160313B5
:1011C000A00083120313A9142910FF30A8212608B8
:1011D00083160313BF39A10083120313A914291026
:1011E000FF30A821260883160313A20083120313DD
:1011F000A9142910FF30A8212608831603137F396C
:10120000A30083120313A9142910FF30A821260874
:10121000831603133F39A40083120313A914291062
:10122000FF30A8212608831603133F39A500831237
:101230000313A9142910FF30A821260883160313CD
:101240000739A60083120313A9142910FF30A8211F
:101250002608831603139F39A70083120313A914CA
:101260002910FF30A821260883160313A800831233
:101270000313A9142910FF30A8212608831603138D
:10128000A90083120313A9142910FF30A8212608EE
:1012900083160313BF39AA0083120313A91429105C
:1012A000FF30A821260883160313BF39AB00831231
:1012B0000313A9142910FF30A8212608831603134D
:1012C0008739AC0083120313A9142910FF30A82119
:1012D0002608831603138339AD0083120313A91460
:1012E0002910FF30A8212608831603138339AE0086
:1012F00083120313A9142914FF30A821260883168A
:101300000313AF00831203133722080037220800AB
:101310001622A91020102008A8212918A629A910F2
:101320002108A8212918A6291622A910201420086E
:10133000A8212918A629A9142914FF30A821A03012
:101340002107840026088000372208003722080081
:10135000A500A6010830A800A50D831603130716E3
:10136000031C0712831203135523831603138715D7
:10137000831203135523A60D2614071E2610831669
:101380000313871183120313A80BAC2983160313CD
:101390000716831203135523A918F529831603137F
:1013A00087158312031355236430A800071EE7290D
:1013B000A80BD6292914831603138711831203134C
:1013C00055238316031307128312031308002910F1
:1013D00083160313871183120313552383160313F4
:1013E00007128312031355230800291CFD298316B5
:1013F0000313071683120313022A8316031307121B
:1014000083120313552383160313871583120313C3
:101410005523831603138711831203135523831651
:1014200003130712831203135523080083120313B7
:101430000708AA002A12AA112A0887008316031394
:10144000071683120313552383160313871583127C
:101450000313552383160313071283120313552313
:101460008316031387118312031355230800552392
:10147000831603138715831203135523831603134F
:1014800007168312031355230800FF3FFF3F643004
:10149000AB0029112923A91020102008DE222918C9
:1014A000532A422308004223AB0B492A291508007E
:1014B0002923A91020142008DE222918672AA9143C
:1014C0002914FF30DE222608A4004223080042230C
:1014D0000800AB0100002923A91020102008DE22FB
:1014E000291C772A4223AB0B6B2A29150800A91067
:1014F0002208DE222918902AA9102308DE222918A2
:10150000902A2923A91020142008DE222918902AC5
:10151000A9142914FF30DE222608A4004223080063
:1015200042230800AB0100002923A9102010200845
:10153000DE22291CA02A4223AB0B932A291508007E
:10154000A9102208DE222918B02AA9102308DE22B9
:101550002918B02AA91029142408DE2242230800E1
:101560004223080020308400AB0100002923A91089
:1015700020102008DE22291CC22A4223AB0BB52AE8
:1015800029150800A9102208DE222918DC2AA91032
:101590002308DE222918DC2A831700088313A400FD
:1015A000A91029142408DE22840A2030403E0406B3
:1015B000031DCC2A42230800422308008312031390
:1015C000A500A6010830A800A50D83160716031C68
:1015D0000712871583120000A60D2614071E261079
:1015E000831687118312A80BE42A83160716831229
:1015F000A918132B831687158312C830A800071E5D
:101600000B2BA80BFF2A291483168711831283162C
:10161000071283120800291083168711831283167C
:10162000071283120800291C192B83160716831230
:101630001C2B8316071283121D2B8316871583120A
:10164000000083168711831200008316071283128D
:101650000800831203130708AA002A12AA112A08F5
:101660008700831607168312552383168715831266
:1016700055238316071283123D2B8316871183127D
:10168000412B080055238316031387118312482B1F
:101690008316071283124C2B83168715831255234A
:1016A000831607168312552308000800FF3FFF3FEB
:1016B000FF3FFF3FFF3FFF3FFF3FFF3FFF3FFF3F3A
:1016C000FF3FFF3FFF3FFF3FFF3FFF3FFF3FFF3F2A
:1016D000FF3FFF3FFF3FFF3FFF3FFF3FFF3FFF3F1A
:1016E000FF3FFF3FFF3FFF3FFF3FFF3FFF3FFF3F0A
:101EC00083120313080083160313080083120317F9
:101ED00008008316031708008A110A16A1268A0132
:101EE00008008A110A16DD268A0108008A110A16DE
:101EF0004E268A0108008A110A1658268A0108000F
:101F00008A110A1662268A0108008A110A1610260A
:101F10008A0108008A110A1615268A0108008A110A
:101F20000A161A268A0108008A110A161F268A0133
:101F300008008A110A1624268A0108008A110A1646
:101F400029268A0108008A110A162E268A0108000D
:101F50008A110A1633268A0108008A110A163826C1
:101F60008A0108008A110A163D268A0108008A1192
:101F70000A1642268A0108008A110A1648268A0192
:101F800008008A110A162F278A0108008A110A16EA
:101F9000AA258A0108008A110A16C8258A010800A4
:101FA000FF3FFF3FFF3FFF3FFF3FFF3FFF3FFF3F41
:101FB000FF3FFF3FFF3FFF3FFF3FFF3FFF3FFF3F31
:101FC000FF3FFF3FFF3FFF3FFF3FFF3FFF3FFF3F21
:101FD000FF3FFF3FFF3FFF3FFF3FFF3FFF3FFF3F11
:101FE000FF3FFF3FFF3FFF3FFF3FFF3FFF3FFF3F01
:101FF000FF3FFF3FFF3FFF3FFF3FFF3FFF3FFF3FF1
:102000000000A03084001B300006031DB22CA1305C
:1020100084000D3000060319B22C41300006031D68
:102020004328A230840030300006031D1928F9101F
:10203000202831300006031DB22CF9142028B22CC0
:10204000A330840030300006031D2A28791179134B
:10205000F913BB2C31300006031D32287911791792
:10206000F913BB2C32300006031D3A28791179137D
:10207000F917BB2C33300006031D4228791179175C
:10208000F917BB2CB22C42300006031D5628A23093
:10209000840030300006031D4F280511BB2C313061
:1020A0000006031D55280515BB2CB22C4330000635
:1020B000031D6928A230840030300006031D622809
:1020C000F911BB2C31300006031D6828F915BB2C13
:1020D000B22C44300006031D912800305826000021
:1020E000003062260000C801C901CA01A230840084
:1020F000000EF039CA00A330840000080F39CA046A
:102100001A250000CD081030A2000030A3000230D4
:10211000A207CD0B87280130AC00E830AD00372C8A
:10212000000045300006031DA9287908E70079134F
:10213000F913A23084000008C200A3308400000814
:10214000C300CE2400004D08C82500006708F90030
:10215000BB2C46300006031DB82883160313981CB9
:10216000AF2883120313463099008A150A16002FF0
:1021700047300006031DD628A23084003030000608
:10218000031DC52879157912BB2C31300006031DBB
:10219000CD2879157916F912BB2C32300006031DB3
:1021A000D52879157916F916BB2CB22C48300006C3
:1021B000031DEB28A230840030300006031DE32805
:1021C00048260000BB2C31300006031DEA284226B9
:1021D0000000BB2CB22C49300006031D6A29790887
:1021E000E7007913F913A23084000008C200A3307D
:1021F00084000008C300CE2400004D08BB00C801C5
:10220000C901CA01A430840000080F39C900A530F3
:102210008400000EF039CA00A630840000080F398F
:10222000CA041A250000CC08CD04790E0339F50044
:1022300011308A00750882072029302920294D296C
:102240003B08DD2600000130CD02031CCC024C0807
:102250004D04031D20297908E7006708F900BB2C0D
:1022600042260000A1260000A12600003B083204FF
:10227000DD2600000130CD02031CCC024C084D04C9
:10228000031D3229482600007708582600007808E8
:10229000622600006708F900BB2C42260000A12638
:1022A0000000A12600003B093205DD2600000130B8
:1022B000CD02031CCC024C084D04031D4F294826B7
:1022C000000077085826000078086226000067089A
:1022D000F900BB2C4A300006031D8B293F08CD00B6
:1022E0008B25000083160313981C74298312031393
:1022F0003030990083160313981C7C298312031332
:102300004208990083160313981C8429831203132F
:1023100043089900BB2C4B300006031DA829C801B7
:10232000C901CA01A230840000080F39C900A330D6
:102330008400000EF039CA00A430840000080F3970
:10234000CA041A2500004D08BF004E260000BB2C11
:102350004C300006031DBB29A2308400303000063B
:10236000031DB4298510BB2C31300006031DBA298A
:102370008514BB2CB22C4D300006031D602AA330FF
:1023800084000008C000A43084000008C100A5300B
:1023900084000008C200A63084000008C300C424E2
:1023A00000004C08A2004D08A300A73084000008DC
:1023B000C000A83084000008C100A93084000008D3
:1023C000C200AA3084000008C300C42400004C08E6
:1023D000AC004D08AD00A230840057300006031950
:1023E000252A523000060319F629B22CA030A0008D
:1023F0008A150A12692200008A110A16831603132D
:10240000981C002A83120313240899000130AD029E
:10241000031CAC022C082D040319BB2C8A150A12CC
:10242000582200008A110A1683160313981C162AD4
:1024300083120313240899000130AD02031CAC027F
:102440002C082D04031D0E2ABB2CA030A000203028
:1024500084008A110A12BD2000008A110A1683170F
:102460008000840A83130130AD02031CAC02FA1809
:10247000B22C2030403E04060319472A831603136A
:10248000981C402A831203133B089900292A8A15B5
:102490000A1247220000B22200008A110A164030B8
:1024A000A3070318A20A83160313981C552A831244
:1024B00003133B0899002C082D04031D272ABB2C6D
:1024C0004E300006031D822AC801C901CA01A2308C
:1024D000840000080F39C900A3308400000EF039D1
:1024E000CA00A430840000080F39CA041A2500006D
:1024F0004D0862260000A5308400000803395826E4
:102500000000BB2C4F300006031D872AB22C503030
:102510000006031DE72AA43084000008C200A5308D
:1025200084000008C300CE244D08BB00A230840004
:1025300044300006031DAB2AA3308400543000064B
:102540000319BF2A573000060319C92A5230000662
:102550000319CF2AB22C45300006031DBE2AA33032
:102560008400543000060319C42A573000060319AA
:10257000CC2A523000060319D12AB22CB22C883052
:1025800084003B088000BB2C893084003B0880001D
:10259000BB2C3B088800BB2C3B088900BB2C0808DF
:1025A000D32A0908D32ACD008B25000083160313F4
:1025B000981CD82A83120313420899008316031328
:1025C000981CE02A8312031343089900BB2C513056
:1025D0000006031DEC2AB22C52300006031D172BF7
:1025E000A23084000008C000A33084000008C100AD
:1025F000A43084000008C200A53084000008C30095
:10260000C4240000CC08CD08A1260000320883169F
:102610000313981C092B8312031399000130CD0278
:10262000031CCC024C084D04031D042BBB2C53305F
:102630000006031D6C2B3030F91B31308316031359
:10264000981C202B8312031399003030791B3130F2
:1026500083160313981C2A2B83120313990030301E
:10266000F91A313083160313981C342B8312031389
:1026700099003030791A313083160313981C3E2BA1
:102680008312031399003030F91931308316031384
:10269000981C482B8312031399003030791931307C
:1026A00083160313981C522B8312031399003030A6
:1026B000F918313083160313981C5C2B8312031313
:1026C000990030307918313083160313981C662B2B
:1026D000831203139900BB2C54300006031DB32B47
:1026E0007908E7007913F913C801C901CA01A230BA
:1026F000840000080F39C900A3308400000EF039AF
:10270000CA00A430840000080F39CA041A2500004A
:102710004C084D04031D912BEB2500006708F900C0
:10272000BB2C7708E5007808E60042260000A126C9
:102730000000A12600003209DD2600000130CD0294
:10274000031CCC024C084D04031D972B48260000A7
:102750006508F700582600006608F80062260000A9
:102760006708F900BB2C55300006031DE02B8A15C5
:102770000A16C22000008A110A168325000083165B
:102780000313981CC12B831203134008990083166E
:102790000313981CC92B8312031341089900831655
:1027A0000313981CD12B831203134208990083163C
:1027B0000313981CD92B8312031343089900BB2CD5
:1027C00056300006031DEB2B8A150A168A270000D7
:1027D0008A110A16BB2C76300006031D032C7908DB
:1027E000E7007913F9130C30F10062260000013084
:1027F0007B2700008A150A16002000008A110A169D
:102800006708F900BB2C57300006031D612C7908BE
:10281000E7007913F913A23084000008C000A33048
:1028200084000008C100A43084000008C200A53064
:1028300084000008C300C42400004C08A2004D0816
:10284000A300A63084000008C000A7308400000860
:10285000C100A83084000008C200A930840000082C
:10286000C300C42400004C08AC004D08AD00A030EB
:10287000A0008A150A12692200008A110A1624088B
:10288000DD2600000130AD02031CAC022C082D0433
:10289000031D4D2C6708F900BB2C8A150A1258221B
:1028A00000008A110A162408DD2600000130AD025E
:1028B000031CAC022C082D04031D4D2C6708F900E5
:1028C000BB2C58300006031D912C7908E7007913C2
:1028D000F913C801C901CA01A230840000080F39E8
:1028E000C900A3308400000EF039CA00A43084006F
:1028F00000080F39CA041A250000CC08CD08F401DD
:102900007408DD260000F40A0130CD02031CCC025D
:102910004C084D04031D802C482600006708F90070
:10292000BB2C59300006031DAB2CA2308400523062
:102930000006031DA12C8A150A1622218A110A16E7
:10294000BB2C57300006031DB22C8A150A164221F3
:102950008A110A16BB2C5A300006031DB22CAA2578
:102960000000BB2C83160313981CB42C8312031392
:102970003F309900080083160313981CBD2C831266
:1029800003134030990008004108D9240000CC000E
:10299000CC0E4008D9240000CC04CC0E4308D92426
:1029A0000000CD00CD0E4208D9240000CD04CD0E8C
:1029B0000800CF0030304F060319003431304F0685
:1029C0000319013432304F060319023433304F06F5
:1029D0000319033434304F060319043435304F06DD
:1029E0000319053436304F060319063437304F06C5
:1029F0000319073438304F060319083439304F06AD
:102A00000319093441304F0603190A3442304F0686
:102A100003190B3443304F0603190C3444304F066E
:102A200003190D3445304F0603190E3446304F0656
:102A300003190F34CC0148080F39CD0003104D0D98
:102A4000CF004C0DCE000310CD0DCC0D0310CD0DDD
:102A5000CC0D0310CD0DCC0D4F08CD070318CC0ABB
:102A60004E08CC07490E0F39CD070318CC0A0310C6
:102A70004D0DCF004C0DCE000310CD0DCC0D03102D
:102A8000CD0DCC0D0310CD0DCC0D4F08CD07031887
:102A9000CC0A4E08CC0749080F39CD070318CC0AD9
:102AA00003104D0DCF004C0DCE000310CD0DCC0DFD
:102AB0000310CD0DCC0D0310CD0DCC0D4F08CD075F
:102AC0000318CC0A4E08CC074A0E0F39CD0703185D
:102AD000CC0A03104D0DCF004C0DCE000310CD0DD0
:102AE000CC0D0310CD0DCC0D0310CD0DCC0D4F082A
:102AF000CD070318CC0A4E08CC074A080F39CD077A
:102B00000318CC0A08004C0E94250000C0004C08A5
:102B100094250000C1004D0E94250000C2004D0810
:102B200094250000C30008000F39CF0015308A003B
:102B30004F0882073034313432343334343435344E
:102B400036343734383439344134423443344434FD
:102B500045344634F90107158A110A12562300003C
:102B60008A110A1607118A110A12562300008A11C7
:102B70000A16152600001A260000332600004826F3
:102B800000000030242600000030C82500000800A6
:102B9000B10000304E260000003058260000003002
:102BA000622600000130F300E830F4003108DD2631
:102BB00000000130F4020318D62D0130F30203188F
:102BC000D62D00304E260000003058260000003080
:102BD000622600000800B501B6013508582600003D
:102BE000360862260000422600000000A1260000F0
:102BF000A12600003209DD260000B60A7A3036062A
:102C0000031DF62D48260000B50A04303506031DC5
:102C1000EC2D00305826000000306226000008002D
:102C200083120313182700000800E230B0000127C8
:102C300000000800AF30B000012700000800AE30EF
:102C4000B000012700000800A030B00001270000FC
:102C50000800A130B000012700000800A530B00036
:102C6000012700000800A430B00001270000080080
:102C7000A830B000012700000800A930B0000127EB
:102C800000000800E030B0000127000079140800BF
:102C9000EE30B00001270000791008008312031302
:102CA000F6001F39F600C038B00001270000080008
:102CB00083120313F7000339F700B838B000012777
:102CC0000000080083120313F8007F390038B000B9
:102CD0003D307802031C6D2E7C2E85118516300840
:102CE00086008C26000085158512003086008C2613
:102CF00000007A17FA170800851185160030860043
:102D00008C260000851585123D30300286008C2609
:102D100000007A17FA17080087108E2E8F2E0710E2
:102D2000912E922E00306600952E962E0714982E26
:102D3000992EFF30660085158516871007148716B3
:102D4000080083120313B2013D307802031CA92E40
:102D5000B92E851185167A1FC92E1A2700007A13FD
:102D600085158516B32EB42EB52EB62E8511851673
:102D7000C92E85158512FA1FC92E1A270000FA13CD
:102D800085158516C32EC42EC52EC62E8515851213
:102D9000C92E1A2700007918DC2EF80A7A3078023A
:102DA000031CDC2EF801780862260000F70A0330C5
:102DB000F705770858260000080083120313B100B6
:102DC0003D307802031CE52EE92E851185167A1315
:102DD000ED2E85158512FA13ED2E07270000F80A4F
:102DE0007A307802031C002FF80178086226000070
:102DF000F91BF70AF70A0330F70577085826000091
:102E00000800851185128710300886000B2F871463
:102E1000310886000B2F0710000000306600102FCD
:102E2000112F0714132F142FFF30660031082F2F96
:102E300087101C2F87141C2F87121E2F1F2F202F47
:102E4000212F222F232F242F252F262F272F282FE6
:102E5000292F0608B2002C2F87162E2F2F2F85150D
:102E600085168710071487160800080083120313BD
:102E70003D307802031C3F2F85158512412F8515A3
:102E800085128710871607140000871200000608B5
:102E9000B300861B462F87160800FF3FFF3FFF3F0A
:102EA000FF3FFF3FFF3FFF3FFF3FFF3FFF3FFF3F32
:102EB000FF3FFF3FFF3FFF3FFF3FFF3FFF3FFF3F22
:102EC00083120313080083160313080083120317E9
:102ED00008008316031708008A110A16A1268A0122
:102EE00008008A110A16DD268A0108008A110A16CE
:102EF0004E268A0108008A110A1658268A010800FF
:102F00008A110A1662268A0108008A110A161026FA
:102F10008A0108008A110A1615268A0108008A11FA
:102F20000A161A268A0108008A110A161F268A0123
:102F300008008A110A1624268A0108008A110A1636
:102F400029268A0108008A110A162E268A010800FD
:102F50008A110A1633268A0108008A110A163826B1
:102F60008A0108008A110A163D268A0108008A1182
:102F70000A1642268A0108008A110A1648268A0182
:102F800008008A110A162F278A0108008A110A16DA
:102F9000AA258A0108008A110A16C8258A01080094
:102FA000FF3FFF3FFF3FFF3FFF3FFF3FFF3FFF3F31
:102FB000FF3FFF3FFF3FFF3FFF3FFF3FFF3FFF3F21
:102FC000FF3FFF3FFF3FFF3FFF3FFF3FFF3FFF3F11
:102FD000FF3FFF3FFF3FFF3FFF3FFF3FFF3FFF3F01
:102FE000FF3FFF3FFF3FFF3FFF3FFF3FFF3FFF3FF1
:102FF000FF3FFF3FFF3FFF3FFF3FFF3FFF3FFF3FE1
:1030000048308400FB011320B1008A110A16E02623
:1030100000008A150A16FB0A840B03285F20612032
:103020005F206720080018308A007B0882073E3442
:103030004134493449347A3400347C34083404341B
:103040000434083400342034543454345434783440
:1030500000347C34143414341434083400347F3491
:1030600008340434043478340034003448347D3473
:10307000403400340034383444344434443420344C
:1030800000347F34403440344034403400343E34E3
:10309000413441344134223400347F3441344134AA
:1030A00022341C3400340034003400340034003442
:1030B00000341F342034403420341F340034843032
:1030C00073288A30732890307328963073289C3088
:1030D0007328A2307328A8307328AE307328B43018
:1030E0007328BA307328FB00063084008220B100B8
:1030F0008A110A16E02600008A150A16FB0A840BBC
:10310000762808007B0882003E3451344934453427
:103110003E340034003442347F34403400340034D0
:10312000423461345134493446340034213441341A
:1031300045344B34313400341834143412347F3471
:1031400010340034273445344534453439340034A0
:103150003C344A3449344934303400340334013483
:10316000713409340734003436344934493449342D
:103170003634003406344934493429341E3400349A
:10318000FF3FFF3F83120313CD01CC0183160313CE
:103190008E309F0083120313C5309F008A110A12DC
:1031A000522300008A150A161F151F19D528403012
:1031B000CA00060840308B008C018D018316031372
:1031C0000C17831203138A110A12522300008A1566
:1031D0000A161F15630000001F19EC28831603133D
:1031E0001E0883120313CD070318CC0A1E08CC0750
:1031F000CA0BD9280630CA00CC0CCD0CCA0BFC284F
:103200000330CC050800FF3FFF3F83179F30840049
:10321000831203179F308D00831203178D0A840ACF
:10322000831603178C130C14831203170C088000E9
:10323000D7300D06031D0C298313831203130800D6
:10324000FF3FFF3F831203179F308D008312031748
:103250008D0A831603178C130C1483160313981C02
:103260002F29831203170C0883120313990083126A
:103270000317D7300D06031D2629831203130800F8
:10328000FF3FFF3F83160313981C44298312031347
:103290004030990083179F3084003830D600840A6C
:1032A0008C1E50291A088000D60B4F2983179F3097
:1032B0008400831203179F308D0083120317840A42
:1032C0008D0A00088C00831603178C130C158B13C2
:1032D00055308D00AA308D008C148B178B1F6D29F3
:1032E00064008C18702983120317D7300D06031D54
:1032F0005D298313831203130800FF3FFF3F05215D
:1033000000008A110A163D2600008A150A1683124B
:10331000031385149F30D800FF30D600051E932973
:103320008A110A1200288317D60AD80A851058086D
:10333000840000080F39D700000E0F39D50055085A
:1033400003194E2A831203135508013A031DAB29B2
:10335000592200003D2A831203135508023A031D27
:10336000CB2959220000831603131B30A0005430D0
:10337000A1003030A2003030A3003030A4000D3066
:10338000A5008312031383138A110A16002000007C
:103390008A150A163D2A831203135508033A031DA2
:1033A000D6290130BE008C2200003D2A831203136F
:1033B0005508043A031DE1290230BE008C220000AA
:1033C0003D2A831203135508053A031DEC290430E6
:1033D000BE008C2200003D2A831203135508063AD2
:1033E000031DF7290830BE008C2200003D2A8312FD
:1033F00003135508073A031D052A83138A110A1679
:10340000002000008A150A163D2A8312031355086E
:10341000083A031D132A83138A110A16002000009C
:103420008A150A163D2A831203135508093A031D0B
:10343000212A83138A110A16002000008A150A1611
:103440003D2A8312031355080A3A031D2F2A8313BA
:103450008A110A16002000008A150A163D2A8312D6
:10346000031355080B3A031D3D2A83138A110A16CC
:10347000002000008A150A163D2A8A110A161A260B
:1034800000008A150A16570803194E2A8A110A12D3
:103490006F2300008A150A16D70B3D2A37305606CF
:1034A000031D8E2987298313831203130800FF3F0E
:1034B000FF3F831203135608CD00CC017723000091
:1034C0004A0E0F393038C8004A080F393038CA0060
:1034D0001B3083160313A000443083160313A1008E
:1034E00083120313480883160313A20083120313E5
:1034F0004A0883160313A3000D3083160313A40098
:103500008312031383138A110A16002000008A1500
:103510000A160800FF3FFF3F3E1C8F2A7930BE1C71
:10352000922A00303E1D952A0030BE1D982A79301F
:10353000BD008A110A16AA2500008A150A163E1C2B
:10354000A22A0030BE1CA52A00303E1DA82A033046
:10355000BE1DAB2A03308A110A16582600008A15B0
:103560000A163E1CB72A0530BD02031CBD01BE1C55
:10357000C52A0530BD077A303D02031CC52ABD01AE
:1035800000308A110A16582600008A150A163E1DB8
:10359000D52A0530BD077A303D02031CD52ABD016E
:1035A00000308A110A16582600008A150A16BE1D18
:1035B000DD2A0530BD02031CBD013D088A110A1633
:1035C000622600008A150A165608CD001030A200A7
:1035D0000030A3000230A207CD0BEA2A0130AC0074
:1035E000E830AD00A030A0008A150A126922000060
:1035F0008A150A163E1C002B3D087802031CA40104
:10360000BE1C072B01303D027802031CA4013E1DA5
:103610000F2B3D0803190F2B78020318A401BE1DC0
:10362000152B3D0878020318A40124088A110A16F4
:10363000DD2600008A150A160130AD02031CAC021B
:103640002C082D04031D272B6708F90008008A1594
:103650000A12582200008A150A163E1C332B3D0818
:103660007802031CA401BE1C3A2B01303D027802F3
:10367000031CA4013E1D422B3D080319422B780276
:103680000318A401BE1D482B3D0878020318A401AD
:1036900024088A110A16DD2600008A150A16013050
:1036A000AD02031CAC022C082D04031D272B670858
:1036B000F9008A110A126D2300008A150A16BD0846
:1036C000031D992A00308A110A16582600008A150F
:1036D0000A1600308A110A16622600008A150A1698
:1036E0000800FF3FFF3F0030CC006430CD000F30BA
:1036F000C700C801C901CA010310CD0DCC0DCA0D08
:10370000C90DC80D03304A07C600C619CA003030BB
:103710004A07C600C61BCA0003304907C600C619BF
:10372000C90030304907C600C61BC900033048072E
:10373000C600C619C80030304807C600C61BC800FE
:10374000C70B7D2BCD0DCC0DCA0DC90DC80D0800C2
:10375000FF3FFF3FFF3FFF3FFF3FFF3FFF3FFF3F79
:10376000FF3FFF3FFF3FFF3FFF3FFF3FFF3FFF3F69
:10377000FF3FFF3FFF3FFF3FFF3FFF3FFF3FFF3F59
:10378000FF3FFF3FFF3FFF3FFF3FFF3FFF3FFF3F49
:103DF000FF3FFF3FFF3FFF3FFF3F83018A01002856
:103E0000831603138C018D01831203138C018D0122
:103E10008B01FB01831603132030980083120313D8
:103E2000903098001A088C1A122F831603170C1161
:103E30008312031385141808840006390319262FEA
:103E400018080639023A03195D2F642F8C1E152FAE
:103E50001A088400FB1F4E2F85101F308A007B0834
:103E600003398207362F3A2F3E2F422F0408FC00D9
:103E7000FB0A152F0408FD00FB0A152F0408FE009D
:103E8000FB0A152F0408FF0070270C1E452F7C0825
:103E90007D077E077F079900FB01152F04083F3A35
:103EA000031D552F8A27FB01152F0408413A031DD6
:103EB0005C2F8030FB00152F152F181218161A08CA
:103EC0008C1A5F2F4F306B2F181218161A088C1A85
:103ED000662F46306B2F0C1E6B2F9900FB01152FA0
:103EE000031783127C088F007D088D007E088E00EA
:103EF0007F088C0083168C170C158B1355308D00A2
:103F0000AA308D008C14000000008C18852F0C1135
:103F10008301080010308400FB010C1E8D2FE02768
:103F20009900FB0A840B8D2F8401FB010800FF3FE1
:103F3000FF3FFF3FFF3FFF3FFF3FFF3FFF3FFF3F91
:103F4000FF3FFF3FFF3FFF3FFF3FFF3FFF3FFF3F81
:103F5000FF3FFF3FFF3FFF3FFF3FFF3FFF3FFF3F71
:103F6000FF3FFF3FFF3FFF3FFF3FFF3FFF3FFF3F61
:103F7000FF3FFF3FFF3FFF3FFF3FFF3FFF3FFF3F51
:103F8000FF3FFF3FFF3FFF3FFF3FFF3FFF3FFF3F41
:103F9000FF3FFF3FFF3FFF3FFF3FFF3FFF3FFF3F31
:103FA000FF3FFF3FFF3FFF3FFF3FFF3FFF3FFF3F21
:103FB000FF3FFF3FFF3FFF3FFF3FFF3FFF3FFF3F11
:103FC0001F308A007B0882074734723461347034B2
:103FD0006834693463344C344334443420345634C4
:103FE0003034313430343434FF3FFF3FFF3FFF3F44
:103FF000FF3FFF3FFF3FFF3FFF3FFF3FFF3FFF3FD1
:04400E00723F0608EF
:084000007000710070007400F3
:104200003E004100490049007A0000007C0008009F
:104210000400040008000000200054005400540072
:10422000780000007C001400140014000800000056
:104230007F0008000400040078000000000048002F
:104240007D004000000000003800440044004400AD
:10425000200000007F0040004000400040000000BF
:104260003E00410041004100220000007F0041006B
:10427000410022001C00000008000800080008009F
:10428000080000001F002000400020001F00000068
:104290007F004100410041007F0000007F0041009D
:1042A000410041007F0000007F00410041004100CB
:1042B0007F0000007F004100410041007F000000BE
:1042C0003E005100490045003E0000000000420051
:1042D0007F004000000000004200610051004900E2
:1042E000460000002100410045004B003100000065
:1042F0001800140012007F00100000002700450085
:1043000045004500390000003C004A0049004900D2
:1043100030000000030001007100090007000000E8
:1043200036004900490049003600000006004900F7
:10433000490029001E000000FF00FF00FF00FF00F1
:10434000190019001F001F001F001F001500130097
:1043500015001300150013001500130015001300BD
:104360001A00000000000000000000000000000033
:10437000000000001000000000000000000000002D
:10438000000000000000000000000000000000002D
:10439000000000000000000000000000000000001D
:1043A000000000000000000000000000000000000D
:1043B00003000300030003000300030003000300E5
:1043C000FF00FF00FF00FF00FF00FF00FF00FF00F5
:1043D000FF00FF00FF00FF00FF00FF00FF00FF00E5
:1043E000FF00FF00FF00FF00FF00FF00FF00FF00D5
:1043F000FF00FF00FF00FF00FF00FF00FF00FF00C5
:00000001FF
